{
  "transactions": [
    {
      "hash": "0x7c7083dd11296256a4506d7016d3a5c16ac713a3cf41fb0df059b32887ee76ce",
      "transactionType": "CALL",
      "contractName": null,
      "contractAddress": "0x3d5e2da4970c00b0eb7c5cc7644f2cd1fd1872b6",
      "function": "mint(address,uint256,string)",
      "arguments": [
        "0x92De4c3ccfBF089471eAC7cF84139243334B48C2",
        "1",
        "https://ipfs.io/ipfs/bafkreihnj7nlz6whld5all2d5ikt2whfstbfotkpbtwyhvi44k4cuvwwmq"
      ],
      "transaction": {
        "from": "0xe8df60a93b2b328397a8cbf73f0d732aaa11e33d",
        "to": "0x3d5e2da4970c00b0eb7c5cc7644f2cd1fd1872b6",
        "gas": "0x52be9",
        "value": "0x0",
        "input": "0xd3fc986400000000000000000000000092de4c3ccfbf089471eac7cf84139243334b48c200000000000000000000000000000000000000000000000000000000000000010000000000000000000000000000000000000000000000000000000000000060000000000000000000000000000000000000000000000000000000000000005068747470733a2f2f697066732e696f2f697066732f6261666b726569686e6a376e6c7a3677686c6435616c6c326435696b7432776866737462666f746b706274777968766934346b3463757677776d7100000000000000000000000000000000",
        "nonce": "0x28b",
        "chainId": "0xaa36a7"
      },
      "additionalContracts": [],
      "isFixedGasLimit": false
    }
  ],
  "receipts": [
    {
      "status": "0x1",
      "cumulativeGasUsed": "0x4ad5b5",
      "logs": [
        {
          "address": "0x3d5e2da4970c00b0eb7c5cc7644f2cd1fd1872b6",
          "topics": [
            "0xddf252ad1be2c89b69c2b068fc378daa952ba7f163c4a11628f55a4df523b3ef",
            "0x0000000000000000000000000000000000000000000000000000000000000000",
            "0x00000000000000000000000092de4c3ccfbf089471eac7cf84139243334b48c2",
            "0x0000000000000000000000000000000000000000000000000000000000000001"
          ],
          "data": "0x",
          "blockHash": "0x06df8f8ac21977b000ea7cd0c47ed3b30f145ee254952d21ca3058a0c2ea83e8",
          "blockNumber": "0x69e5f9",
          "transactionHash": "0x7c7083dd11296256a4506d7016d3a5c16ac713a3cf41fb0df059b32887ee76ce",
          "transactionIndex": "0x39",
          "logIndex": "0x66",
          "removed": false
        },
        {
          "address": "0x92de4c3ccfbf089471eac7cf84139243334b48c2",
          "topics": [
            "0xa05d90f300156ad1b545bc5d8197024456f21d22a708f5af04dd293e3d605251",
            "0x000000000000000000000000e8df60a93b2b328397a8cbf73f0d732aaa11e33d",
            "0x0000000000000000000000000000000000000000000000000000000000000000",
            "0x0000000000000000000000000000000000000000000000000000000000000001"
          ],
          "data": "0x00000000000000000000000000000000000000000000000000000000000000200000000000000000000000000000000000000000000000000000000000000000",
          "blockHash": "0x06df8f8ac21977b000ea7cd0c47ed3b30f145ee254952d21ca3058a0c2ea83e8",
          "blockNumber": "0x69e5f9",
          "transactionHash": "0x7c7083dd11296256a4506d7016d3a5c16ac713a3cf41fb0df059b32887ee76ce",
          "transactionIndex": "0x39",
          "logIndex": "0x67",
          "removed": false
        },
        {
          "address": "0x3d5e2da4970c00b0eb7c5cc7644f2cd1fd1872b6",
          "topics": [
            "0xf8e1a15aba9398e019f0b49df1a4fde98ee17ae345cb5f6b5e2c27f5033e8ce7"
          ],
          "data": "0x0000000000000000000000000000000000000000000000000000000000000001",
          "blockHash": "0x06df8f8ac21977b000ea7cd0c47ed3b30f145ee254952d21ca3058a0c2ea83e8",
          "blockNumber": "0x69e5f9",
          "transactionHash": "0x7c7083dd11296256a4506d7016d3a5c16ac713a3cf41fb0df059b32887ee76ce",
          "transactionIndex": "0x39",
          "logIndex": "0x68",
          "removed": false
        },
        {
          "address": "0x3d5e2da4970c00b0eb7c5cc7644f2cd1fd1872b6",
          "topics": [
            "0xec2cd236ed6d37bf5a71276ac93889db12834493a090efd543a3d2eca8dcdcc8",
            "0x0000000000000000000000000000000000000000000000000000000000000001",
            "0x00000000000000000000000092de4c3ccfbf089471eac7cf84139243334b48c2"
          ],
          "data": "0x0000000000000000000000000000000000000000000000000000000000000020000000000000000000000000000000000000000000000000000000000000005068747470733a2f2f697066732e696f2f697066732f6261666b726569686e6a376e6c7a3677686c6435616c6c326435696b7432776866737462666f746b706274777968766934346b3463757677776d7100000000000000000000000000000000",
          "blockHash": "0x06df8f8ac21977b000ea7cd0c47ed3b30f145ee254952d21ca3058a0c2ea83e8",
          "blockNumber": "0x69e5f9",
          "transactionHash": "0x7c7083dd11296256a4506d7016d3a5c16ac713a3cf41fb0df059b32887ee76ce",
          "transactionIndex": "0x39",
          "logIndex": "0x69",
          "removed": false
        }
      ],
      "logsBloom": "0x00000000000000000000000000000000000000000000200000000000000000000000000040000000000000400000000000000000000000000000000000040000000000000000000020080008000000000000000000040000000000000000000000000000020000000000000000000800000000000080000000000010000000000000000000000001000008000000000000000000000000000000000000000000000020000000000000000000000000002000040008000000000000000000018000000002000001000000000000000000002000000000000000000000000060000000000000000000300008000000000000000000000000000000000000000000",
      "type": "0x2",
      "transactionHash": "0x7c7083dd11296256a4506d7016d3a5c16ac713a3cf41fb0df059b32887ee76ce",
      "transactionIndex": "0x39",
      "blockHash": "0x06df8f8ac21977b000ea7cd0c47ed3b30f145ee254952d21ca3058a0c2ea83e8",
      "blockNumber": "0x69e5f9",
      "gasUsed": "0x3be7e",
      "effectiveGasPrice": "0xd857e49e5",
      "from": "0xe8df60a93b2b328397a8cbf73f0d732aaa11e33d",
      "to": "0x3d5e2da4970c00b0eb7c5cc7644f2cd1fd1872b6",
      "contractAddress": null
    }
  ],
  "libraries": [],
  "pending": [],
  "returns": {},
  "timestamp": 1729827563,
  "chain": 11155111,
  "commit": "d5b14d4"
}