{
  "transactions": [
    {
      "hash": "0xd4a76d7fe57038c8a44a8e74c0ec20bc165086a032e9397dd63b8f0b21af332b",
      "transactionType": "CALL",
      "contractName": "LegacyNFT",
      "contractAddress": "0x007392c33cce375634d264a42cdcb21fbfbe47aa",
      "function": "mint(address,uint256,string)",
      "arguments": [
        "0xd5A4Ed9d14bc273ce995B4E7E8fa0a21E59F8F3b",
        "2",
        "https://ipfs.io/ipfs/bafkreigwyj6kz7bawjh3t34pol5smsvyatmvo6kd6qabuite34mrutnpbe"
      ],
      "transaction": {
        "from": "0x759941ecb2b2961566c94e4db53ae3eec35f980c",
        "to": "0x007392c33cce375634d264a42cdcb21fbfbe47aa",
        "gas": "0x52412",
        "value": "0x0",
        "input": "0xd3fc9864000000000000000000000000d5a4ed9d14bc273ce995b4e7e8fa0a21e59f8f3b00000000000000000000000000000000000000000000000000000000000000020000000000000000000000000000000000000000000000000000000000000060000000000000000000000000000000000000000000000000000000000000005068747470733a2f2f697066732e696f2f697066732f6261666b7265696777796a366b7a376261776a6833743334706f6c35736d73767961746d766f366b64367161627569746533346d7275746e70626500000000000000000000000000000000",
        "nonce": "0x8",
        "chainId": "0x1"
      },
      "additionalContracts": [],
      "isFixedGasLimit": false
    }
  ],
  "receipts": [
    {
      "status": "0x1",
      "cumulativeGasUsed": "0x953d79",
      "logs": [
        {
          "address": "0x007392c33cce375634d264a42cdcb21fbfbe47aa",
          "topics": [
            "0xddf252ad1be2c89b69c2b068fc378daa952ba7f163c4a11628f55a4df523b3ef",
            "0x0000000000000000000000000000000000000000000000000000000000000000",
            "0x000000000000000000000000d5a4ed9d14bc273ce995b4e7e8fa0a21e59f8f3b",
            "0x0000000000000000000000000000000000000000000000000000000000000002"
          ],
          "data": "0x",
          "blockHash": "0x1ad4143f2da6583bdb7597ede79b7bf170b99bfcac5622e47b2bdefd52f3e4a2",
          "blockNumber": "0x14cec26",
          "transactionHash": "0xd4a76d7fe57038c8a44a8e74c0ec20bc165086a032e9397dd63b8f0b21af332b",
          "transactionIndex": "0x6b",
          "logIndex": "0x10f",
          "removed": false
        },
        {
          "address": "0x007392c33cce375634d264a42cdcb21fbfbe47aa",
          "topics": [
            "0xf8e1a15aba9398e019f0b49df1a4fde98ee17ae345cb5f6b5e2c27f5033e8ce7"
          ],
          "data": "0x0000000000000000000000000000000000000000000000000000000000000002",
          "blockHash": "0x1ad4143f2da6583bdb7597ede79b7bf170b99bfcac5622e47b2bdefd52f3e4a2",
          "blockNumber": "0x14cec26",
          "transactionHash": "0xd4a76d7fe57038c8a44a8e74c0ec20bc165086a032e9397dd63b8f0b21af332b",
          "transactionIndex": "0x6b",
          "logIndex": "0x110",
          "removed": false
        },
        {
          "address": "0x007392c33cce375634d264a42cdcb21fbfbe47aa",
          "topics": [
            "0xec2cd236ed6d37bf5a71276ac93889db12834493a090efd543a3d2eca8dcdcc8",
            "0x0000000000000000000000000000000000000000000000000000000000000002",
            "0x000000000000000000000000d5a4ed9d14bc273ce995b4e7e8fa0a21e59f8f3b"
          ],
          "data": "0x0000000000000000000000000000000000000000000000000000000000000020000000000000000000000000000000000000000000000000000000000000005068747470733a2f2f697066732e696f2f697066732f6261666b7265696777796a366b7a376261776a6833743334706f6c35736d73767961746d766f366b64367161627569746533346d7275746e70626500000000000000000000000000000000",
          "blockHash": "0x1ad4143f2da6583bdb7597ede79b7bf170b99bfcac5622e47b2bdefd52f3e4a2",
          "blockNumber": "0x14cec26",
          "transactionHash": "0xd4a76d7fe57038c8a44a8e74c0ec20bc165086a032e9397dd63b8f0b21af332b",
          "transactionIndex": "0x6b",
          "logIndex": "0x111",
          "removed": false
        }
      ],
      "logsBloom": "0x04004000000000000000000000000000000000000000000000000000000000000000000000000000000000002000000000000000000000000000002000000000000000000000000100000008000000000000000000000000000000000000000000000000020000000000000000000800000000000080000000000010000000000000000000000000000008000000000000000000200000000000000000000000000000000000000000000100000000002000000000000000000000000000008000000002000000000000000000000000000000000000000000000000000020000000000000000000200000000000000000000000008000000000400000000000",
      "type": "0x2",
      "transactionHash": "0xd4a76d7fe57038c8a44a8e74c0ec20bc165086a032e9397dd63b8f0b21af332b",
      "transactionIndex": "0x6b",
      "blockHash": "0x1ad4143f2da6583bdb7597ede79b7bf170b99bfcac5622e47b2bdefd52f3e4a2",
      "blockNumber": "0x14cec26",
      "gasUsed": "0x3b8d0",
      "effectiveGasPrice": "0x4a64e4cc",
      "from": "0x759941ecb2b2961566c94e4db53ae3eec35f980c",
      "to": "0x007392c33cce375634d264a42cdcb21fbfbe47aa",
      "contractAddress": null
    }
  ],
  "libraries": [],
  "pending": [],
  "returns": {},
  "timestamp": 1739218087,
  "chain": 1,
  "commit": "cbea99b"
}