{
  "transactions": [
    {
      "hash": "0x0e07d6ad77619c9ccee89320f1195fb77bf572b47d3214683d474a9ebc2cc09b",
      "transactionType": "CALL",
      "contractName": "LegacyNFT",
      "contractAddress": "0x007392c33cce375634d264a42cdcb21fbfbe47aa",
      "function": "mint(address,uint256,string)",
      "arguments": [
        "0x66dcc49c47ebc505a4b560fD14Dc143f0098407f",
        "3",
        "https://ipfs.io/ipfs/bafkreiea637wfe3xfuk5omgs6alrlrtgyyaqa4kkq5q7spo3sqmnpnl2oq"
      ],
      "transaction": {
        "from": "0x759941ecb2b2961566c94e4db53ae3eec35f980c",
        "to": "0x007392c33cce375634d264a42cdcb21fbfbe47aa",
        "gas": "0x549f1",
        "value": "0x0",
        "input": "0xd3fc986400000000000000000000000066dcc49c47ebc505a4b560fd14dc143f0098407f00000000000000000000000000000000000000000000000000000000000000030000000000000000000000000000000000000000000000000000000000000060000000000000000000000000000000000000000000000000000000000000005068747470733a2f2f697066732e696f2f697066732f6261666b7265696561363337776665337866756b356f6d677336616c726c7274677979617161346b6b7135713773706f3373716d6e706e6c326f7100000000000000000000000000000000",
        "nonce": "0x9",
        "chainId": "0x1"
      },
      "additionalContracts": [],
      "isFixedGasLimit": false
    }
  ],
  "receipts": [
    {
      "status": "0x1",
      "cumulativeGasUsed": "0x58753e",
      "logs": [
        {
          "address": "0x007392c33cce375634d264a42cdcb21fbfbe47aa",
          "topics": [
            "0xddf252ad1be2c89b69c2b068fc378daa952ba7f163c4a11628f55a4df523b3ef",
            "0x0000000000000000000000000000000000000000000000000000000000000000",
            "0x00000000000000000000000066dcc49c47ebc505a4b560fd14dc143f0098407f",
            "0x0000000000000000000000000000000000000000000000000000000000000003"
          ],
          "data": "0x",
          "blockHash": "0x70f957b14db708842646b9ed99c0e1eb3ef4cdcfe461d6ec1ea0118e42ecbcbd",
          "blockNumber": "0x14cec35",
          "transactionHash": "0x0e07d6ad77619c9ccee89320f1195fb77bf572b47d3214683d474a9ebc2cc09b",
          "transactionIndex": "0x61",
          "logIndex": "0x6a",
          "removed": false
        },
        {
          "address": "0x66dcc49c47ebc505a4b560fd14dc143f0098407f",
          "topics": [
            "0xa05d90f300156ad1b545bc5d8197024456f21d22a708f5af04dd293e3d605251",
            "0x000000000000000000000000759941ecb2b2961566c94e4db53ae3eec35f980c",
            "0x0000000000000000000000000000000000000000000000000000000000000000",
            "0x0000000000000000000000000000000000000000000000000000000000000003"
          ],
          "data": "0x00000000000000000000000000000000000000000000000000000000000000200000000000000000000000000000000000000000000000000000000000000000",
          "blockHash": "0x70f957b14db708842646b9ed99c0e1eb3ef4cdcfe461d6ec1ea0118e42ecbcbd",
          "blockNumber": "0x14cec35",
          "transactionHash": "0x0e07d6ad77619c9ccee89320f1195fb77bf572b47d3214683d474a9ebc2cc09b",
          "transactionIndex": "0x61",
          "logIndex": "0x6b",
          "removed": false
        },
        {
          "address": "0x007392c33cce375634d264a42cdcb21fbfbe47aa",
          "topics": [
            "0xf8e1a15aba9398e019f0b49df1a4fde98ee17ae345cb5f6b5e2c27f5033e8ce7"
          ],
          "data": "0x0000000000000000000000000000000000000000000000000000000000000003",
          "blockHash": "0x70f957b14db708842646b9ed99c0e1eb3ef4cdcfe461d6ec1ea0118e42ecbcbd",
          "blockNumber": "0x14cec35",
          "transactionHash": "0x0e07d6ad77619c9ccee89320f1195fb77bf572b47d3214683d474a9ebc2cc09b",
          "transactionIndex": "0x61",
          "logIndex": "0x6c",
          "removed": false
        },
        {
          "address": "0x007392c33cce375634d264a42cdcb21fbfbe47aa",
          "topics": [
            "0xec2cd236ed6d37bf5a71276ac93889db12834493a090efd543a3d2eca8dcdcc8",
            "0x0000000000000000000000000000000000000000000000000000000000000003",
            "0x00000000000000000000000066dcc49c47ebc505a4b560fd14dc143f0098407f"
          ],
          "data": "0x0000000000000000000000000000000000000000000000000000000000000020000000000000000000000000000000000000000000000000000000000000005068747470733a2f2f697066732e696f2f697066732f6261666b7265696561363337776665337866756b356f6d677336616c726c7274677979617161346b6b7135713773706f3373716d6e706e6c326f7100000000000000000000000000000000",
          "blockHash": "0x70f957b14db708842646b9ed99c0e1eb3ef4cdcfe461d6ec1ea0118e42ecbcbd",
          "blockNumber": "0x14cec35",
          "transactionHash": "0x0e07d6ad77619c9ccee89320f1195fb77bf572b47d3214683d474a9ebc2cc09b",
          "transactionIndex": "0x61",
          "logIndex": "0x6d",
          "removed": false
        }
      ],
      "logsBloom": "0x00000000000000000000000000000000000000000000000020000000000000000000000000000000000000002000000000000000020000000000002000000000000000000000000100080008000000000000000000000000000000000000000000000000020000000000000000000800000000000080080001000010004000000000000000000000000008000000000000000000000000000000000000000000000000000000000000000000000000002000040000800000004000800000408000000002000001000000000000000000000000000000004002000000000020000000000000000000200400000000000000000000000000000000000000000000",
      "type": "0x2",
      "transactionHash": "0x0e07d6ad77619c9ccee89320f1195fb77bf572b47d3214683d474a9ebc2cc09b",
      "transactionIndex": "0x61",
      "blockHash": "0x70f957b14db708842646b9ed99c0e1eb3ef4cdcfe461d6ec1ea0118e42ecbcbd",
      "blockNumber": "0x14cec35",
      "gasUsed": "0x3d43c",
      "effectiveGasPrice": "0x45274fb9",
      "from": "0x759941ecb2b2961566c94e4db53ae3eec35f980c",
      "to": "0x007392c33cce375634d264a42cdcb21fbfbe47aa",
      "contractAddress": null
    }
  ],
  "libraries": [],
  "pending": [],
  "returns": {},
  "timestamp": 1739218266,
  "chain": 1,
  "commit": "cbea99b"
}