{
  "transactions": [
    {
      "hash": "0x5171bcedc4f48176bed6e7649d24a8f33b3547b224e4299786a8a4156fd729ae",
      "transactionType": "CALL",
      "contractName": "LegacyNFT",
      "contractAddress": "0x007392c33cce375634d264a42cdcb21fbfbe47aa",
      "function": "mint(address,uint256,string)",
      "arguments": [
        "0xBae2957B8c6CC7D39b7fDF5e82Cf8C467B86Be40",
        "5",
        "https://ipfs.io/ipfs/bafkreih6uaq2anzkcofhqtuw2tkucnrx4yxz4bij4f6gxsnhpj4et4tfky"
      ],
      "transaction": {
        "from": "0x759941ecb2b2961566c94e4db53ae3eec35f980c",
        "to": "0x007392c33cce375634d264a42cdcb21fbfbe47aa",
        "gas": "0x52412",
        "value": "0x0",
        "input": "0xd3fc9864000000000000000000000000bae2957b8c6cc7d39b7fdf5e82cf8c467b86be4000000000000000000000000000000000000000000000000000000000000000050000000000000000000000000000000000000000000000000000000000000060000000000000000000000000000000000000000000000000000000000000005068747470733a2f2f697066732e696f2f697066732f6261666b726569683675617132616e7a6b636f66687174757732746b75636e72783479787a3462696a3466366778736e68706a3465743474666b7900000000000000000000000000000000",
        "nonce": "0xb",
        "chainId": "0x1"
      },
      "additionalContracts": [],
      "isFixedGasLimit": false
    }
  ],
  "receipts": [
    {
      "status": "0x1",
      "cumulativeGasUsed": "0x88834a",
      "logs": [
        {
          "address": "0x007392c33cce375634d264a42cdcb21fbfbe47aa",
          "topics": [
            "0xddf252ad1be2c89b69c2b068fc378daa952ba7f163c4a11628f55a4df523b3ef",
            "0x0000000000000000000000000000000000000000000000000000000000000000",
            "0x000000000000000000000000bae2957b8c6cc7d39b7fdf5e82cf8c467b86be40",
            "0x0000000000000000000000000000000000000000000000000000000000000005"
          ],
          "data": "0x",
          "blockHash": "0x90ff62639d2afc5428e0b5f22fb3ad2abc03b76f0000eae7b76b2f86d1a595bf",
          "blockNumber": "0x14cec51",
          "transactionHash": "0x5171bcedc4f48176bed6e7649d24a8f33b3547b224e4299786a8a4156fd729ae",
          "transactionIndex": "0x60",
          "logIndex": "0xcc",
          "removed": false
        },
        {
          "address": "0x007392c33cce375634d264a42cdcb21fbfbe47aa",
          "topics": [
            "0xf8e1a15aba9398e019f0b49df1a4fde98ee17ae345cb5f6b5e2c27f5033e8ce7"
          ],
          "data": "0x0000000000000000000000000000000000000000000000000000000000000005",
          "blockHash": "0x90ff62639d2afc5428e0b5f22fb3ad2abc03b76f0000eae7b76b2f86d1a595bf",
          "blockNumber": "0x14cec51",
          "transactionHash": "0x5171bcedc4f48176bed6e7649d24a8f33b3547b224e4299786a8a4156fd729ae",
          "transactionIndex": "0x60",
          "logIndex": "0xcd",
          "removed": false
        },
        {
          "address": "0x007392c33cce375634d264a42cdcb21fbfbe47aa",
          "topics": [
            "0xec2cd236ed6d37bf5a71276ac93889db12834493a090efd543a3d2eca8dcdcc8",
            "0x0000000000000000000000000000000000000000000000000000000000000005",
            "0x000000000000000000000000bae2957b8c6cc7d39b7fdf5e82cf8c467b86be40"
          ],
          "data": "0x0000000000000000000000000000000000000000000000000000000000000020000000000000000000000000000000000000000000000000000000000000005068747470733a2f2f697066732e696f2f697066732f6261666b726569683675617132616e7a6b636f66687174757732746b75636e72783479787a3462696a3466366778736e68706a3465743474666b7900000000000000000000000000000000",
          "blockHash": "0x90ff62639d2afc5428e0b5f22fb3ad2abc03b76f0000eae7b76b2f86d1a595bf",
          "blockNumber": "0x14cec51",
          "transactionHash": "0x5171bcedc4f48176bed6e7649d24a8f33b3547b224e4299786a8a4156fd729ae",
          "transactionIndex": "0x60",
          "logIndex": "0xce",
          "removed": false
        }
      ],
      "logsBloom": "0x00000000000000000000000000000000000000000000000000000000000000000000000000000000000000002000000000000000000000000000002000000000000010000000000100000008000000000000000000000000000000000000000000000000020004000000000000000800000000000080000000000010000000000000000000000000000008000000001000000800000000000000000000000000000000000000000000000000000000002000000000000000000000000000008000000002000000000000000000000000000000000000000000000000000020000000000000000000200000000000000080000000000000000000000000000000",
      "type": "0x2",
      "transactionHash": "0x5171bcedc4f48176bed6e7649d24a8f33b3547b224e4299786a8a4156fd729ae",
      "transactionIndex": "0x60",
      "blockHash": "0x90ff62639d2afc5428e0b5f22fb3ad2abc03b76f0000eae7b76b2f86d1a595bf",
      "blockNumber": "0x14cec51",
      "gasUsed": "0x3b8d0",
      "effectiveGasPrice": "0x48d5bc95",
      "from": "0x759941ecb2b2961566c94e4db53ae3eec35f980c",
      "to": "0x007392c33cce375634d264a42cdcb21fbfbe47aa",
      "contractAddress": null
    }
  ],
  "libraries": [],
  "pending": [],
  "returns": {},
  "timestamp": 1739218601,
  "chain": 1,
  "commit": "cbea99b"
}