{
  "transactions": [
    {
      "hash": "0xb5da7412700375d9524bc8d917fc10ab3e29b9693f760ebe9716fb18106322ce",
      "transactionType": "CALL",
      "contractName": "LegacyNFT",
      "contractAddress": "0x007392c33cce375634d264a42cdcb21fbfbe47aa",
      "function": "mint(address,uint256,string)",
      "arguments": [
        "0x66dcc49c47ebc505a4b560fD14Dc143f0098407f",
        "1",
        "https://ipfs.io/ipfs/bafkreigqtvo4qowmivpzvfnjxyimawhzi2uys6gzmv6ragmkzzmqukiiti"
      ],
      "transaction": {
        "from": "0x759941ecb2b2961566c94e4db53ae3eec35f980c",
        "to": "0x007392c33cce375634d264a42cdcb21fbfbe47aa",
        "gas": "0x52bba",
        "value": "0x0",
        "input": "0xd3fc986400000000000000000000000066dcc49c47ebc505a4b560fd14dc143f0098407f00000000000000000000000000000000000000000000000000000000000000010000000000000000000000000000000000000000000000000000000000000060000000000000000000000000000000000000000000000000000000000000005068747470733a2f2f697066732e696f2f697066732f6261666b726569677174766f34716f776d6976707a76666e6a7879696d6177687a693275797336677a6d76367261676d6b7a7a6d71756b6969746900000000000000000000000000000000",
        "nonce": "0x7",
        "chainId": "0x1"
      },
      "additionalContracts": [],
      "isFixedGasLimit": false
    }
  ],
  "receipts": [
    {
      "status": "0x1",
      "cumulativeGasUsed": "0x13a3caa",
      "logs": [
        {
          "address": "0x007392c33cce375634d264a42cdcb21fbfbe47aa",
          "topics": [
            "0xddf252ad1be2c89b69c2b068fc378daa952ba7f163c4a11628f55a4df523b3ef",
            "0x0000000000000000000000000000000000000000000000000000000000000000",
            "0x00000000000000000000000066dcc49c47ebc505a4b560fd14dc143f0098407f",
            "0x0000000000000000000000000000000000000000000000000000000000000001"
          ],
          "data": "0x",
          "blockHash": "0x35d7dc4d818dad9a96299acf1dfe971b10a63e206a3e261ec500834c8b6d9e3f",
          "blockNumber": "0x14cec12",
          "transactionHash": "0xb5da7412700375d9524bc8d917fc10ab3e29b9693f760ebe9716fb18106322ce",
          "transactionIndex": "0xec",
          "logIndex": "0x199",
          "removed": false
        },
        {
          "address": "0x66dcc49c47ebc505a4b560fd14dc143f0098407f",
          "topics": [
            "0xa05d90f300156ad1b545bc5d8197024456f21d22a708f5af04dd293e3d605251",
            "0x000000000000000000000000759941ecb2b2961566c94e4db53ae3eec35f980c",
            "0x0000000000000000000000000000000000000000000000000000000000000000",
            "0x0000000000000000000000000000000000000000000000000000000000000001"
          ],
          "data": "0x00000000000000000000000000000000000000000000000000000000000000200000000000000000000000000000000000000000000000000000000000000000",
          "blockHash": "0x35d7dc4d818dad9a96299acf1dfe971b10a63e206a3e261ec500834c8b6d9e3f",
          "blockNumber": "0x14cec12",
          "transactionHash": "0xb5da7412700375d9524bc8d917fc10ab3e29b9693f760ebe9716fb18106322ce",
          "transactionIndex": "0xec",
          "logIndex": "0x19a",
          "removed": false
        },
        {
          "address": "0x007392c33cce375634d264a42cdcb21fbfbe47aa",
          "topics": [
            "0xf8e1a15aba9398e019f0b49df1a4fde98ee17ae345cb5f6b5e2c27f5033e8ce7"
          ],
          "data": "0x0000000000000000000000000000000000000000000000000000000000000001",
          "blockHash": "0x35d7dc4d818dad9a96299acf1dfe971b10a63e206a3e261ec500834c8b6d9e3f",
          "blockNumber": "0x14cec12",
          "transactionHash": "0xb5da7412700375d9524bc8d917fc10ab3e29b9693f760ebe9716fb18106322ce",
          "transactionIndex": "0xec",
          "logIndex": "0x19b",
          "removed": false
        },
        {
          "address": "0x007392c33cce375634d264a42cdcb21fbfbe47aa",
          "topics": [
            "0xec2cd236ed6d37bf5a71276ac93889db12834493a090efd543a3d2eca8dcdcc8",
            "0x0000000000000000000000000000000000000000000000000000000000000001",
            "0x00000000000000000000000066dcc49c47ebc505a4b560fd14dc143f0098407f"
          ],
          "data": "0x0000000000000000000000000000000000000000000000000000000000000020000000000000000000000000000000000000000000000000000000000000005068747470733a2f2f697066732e696f2f697066732f6261666b726569677174766f34716f776d6976707a76666e6a7879696d6177687a693275797336677a6d76367261676d6b7a7a6d71756b6969746900000000000000000000000000000000",
          "blockHash": "0x35d7dc4d818dad9a96299acf1dfe971b10a63e206a3e261ec500834c8b6d9e3f",
          "blockNumber": "0x14cec12",
          "transactionHash": "0xb5da7412700375d9524bc8d917fc10ab3e29b9693f760ebe9716fb18106322ce",
          "transactionIndex": "0xec",
          "logIndex": "0x19c",
          "removed": false
        }
      ],
      "logsBloom": "0x00000000000000000000000000000000000000000000000020000000000000000000000000000000000000002000000000000000000000000000002000040000000000000000000100080008000000000000000000040000000000000000000000000000020000000000000000000800000000000080080001000010004000000000000000000000000008000000000000000000000000000000000000000000000000000000000000000000000000002000040000000000004000800000008000000002000001000000000000000000000000000000004002000000000060000000000000000000200400000000000000000000000000000000000000000000",
      "type": "0x2",
      "transactionHash": "0xb5da7412700375d9524bc8d917fc10ab3e29b9693f760ebe9716fb18106322ce",
      "transactionIndex": "0xec",
      "blockHash": "0x35d7dc4d818dad9a96299acf1dfe971b10a63e206a3e261ec500834c8b6d9e3f",
      "blockNumber": "0x14cec12",
      "gasUsed": "0x3be5c",
      "effectiveGasPrice": "0x4152c583",
      "from": "0x759941ecb2b2961566c94e4db53ae3eec35f980c",
      "to": "0x007392c33cce375634d264a42cdcb21fbfbe47aa",
      "contractAddress": null
    }
  ],
  "libraries": [],
  "pending": [],
  "returns": {},
  "timestamp": 1739217847,
  "chain": 1,
  "commit": "cbea99b"
}