{
  "transactions": [
    {
      "hash": "0x4b178fd8dd00799c73cea26ca4f04e0bb26347021fe1094fc602c8bcbb4916a0",
      "transactionType": "CALL",
      "contractName": "LegacyNFT",
      "contractAddress": "0x007392c33cce375634d264a42cdcb21fbfbe47aa",
      "function": "mint(address,uint256,string)",
      "arguments": [
        "0x5a7c04218942c1c9baED35289A9b3eDfEd6F216F",
        "4",
        "https://ipfs.io/ipfs/bafkreif5qhbet4fagesxfvke64fb2rble72ac5l75w26repomhat7bhcwq"
      ],
      "transaction": {
        "from": "0x759941ecb2b2961566c94e4db53ae3eec35f980c",
        "to": "0x007392c33cce375634d264a42cdcb21fbfbe47aa",
        "gas": "0x52412",
        "value": "0x0",
        "input": "0xd3fc98640000000000000000000000005a7c04218942c1c9baed35289a9b3edfed6f216f00000000000000000000000000000000000000000000000000000000000000040000000000000000000000000000000000000000000000000000000000000060000000000000000000000000000000000000000000000000000000000000005068747470733a2f2f697066732e696f2f697066732f6261666b726569663571686265743466616765737866766b65363466623272626c6537326163356c37357732367265706f6d68617437626863777100000000000000000000000000000000",
        "nonce": "0xa",
        "chainId": "0x1"
      },
      "additionalContracts": [],
      "isFixedGasLimit": false
    }
  ],
  "receipts": [
    {
      "status": "0x1",
      "cumulativeGasUsed": "0x115cf8e",
      "logs": [
        {
          "address": "0x007392c33cce375634d264a42cdcb21fbfbe47aa",
          "topics": [
            "0xddf252ad1be2c89b69c2b068fc378daa952ba7f163c4a11628f55a4df523b3ef",
            "0x0000000000000000000000000000000000000000000000000000000000000000",
            "0x0000000000000000000000005a7c04218942c1c9baed35289a9b3edfed6f216f",
            "0x0000000000000000000000000000000000000000000000000000000000000004"
          ],
          "data": "0x",
          "blockHash": "0xe972c4fa6a46a3b419f623c71d98eaa692abb32665c44049b7a0f90470ce6ea1",
          "blockNumber": "0x14cec43",
          "transactionHash": "0x4b178fd8dd00799c73cea26ca4f04e0bb26347021fe1094fc602c8bcbb4916a0",
          "transactionIndex": "0xe2",
          "logIndex": "0x1b2",
          "removed": false
        },
        {
          "address": "0x007392c33cce375634d264a42cdcb21fbfbe47aa",
          "topics": [
            "0xf8e1a15aba9398e019f0b49df1a4fde98ee17ae345cb5f6b5e2c27f5033e8ce7"
          ],
          "data": "0x0000000000000000000000000000000000000000000000000000000000000004",
          "blockHash": "0xe972c4fa6a46a3b419f623c71d98eaa692abb32665c44049b7a0f90470ce6ea1",
          "blockNumber": "0x14cec43",
          "transactionHash": "0x4b178fd8dd00799c73cea26ca4f04e0bb26347021fe1094fc602c8bcbb4916a0",
          "transactionIndex": "0xe2",
          "logIndex": "0x1b3",
          "removed": false
        },
        {
          "address": "0x007392c33cce375634d264a42cdcb21fbfbe47aa",
          "topics": [
            "0xec2cd236ed6d37bf5a71276ac93889db12834493a090efd543a3d2eca8dcdcc8",
            "0x0000000000000000000000000000000000000000000000000000000000000004",
            "0x0000000000000000000000005a7c04218942c1c9baed35289a9b3edfed6f216f"
          ],
          "data": "0x0000000000000000000000000000000000000000000000000000000000000020000000000000000000000000000000000000000000000000000000000000005068747470733a2f2f697066732e696f2f697066732f6261666b726569663571686265743466616765737866766b65363466623272626c6537326163356c37357732367265706f6d68617437626863777100000000000000000000000000000000",
          "blockHash": "0xe972c4fa6a46a3b419f623c71d98eaa692abb32665c44049b7a0f90470ce6ea1",
          "blockNumber": "0x14cec43",
          "transactionHash": "0x4b178fd8dd00799c73cea26ca4f04e0bb26347021fe1094fc602c8bcbb4916a0",
          "transactionIndex": "0xe2",
          "logIndex": "0x1b4",
          "removed": false
        }
      ],
      "logsBloom": "0x00000000000000000000000000000000000000000000000000000000000000000000000000000000000000002000000000000000000000000000002002000000000000000000002100000008000000000000000000000000000000000000000008000000020000000000000000000800000000000080000000000010000000000000000000000000000008000000000000000000000000000000000000000000000000000000000000000000000000002000000000000000002000000000008000000002000000000000000000000000000000008000000000000000000020000000000000000000200000000000000000000000000000000004000000000000",
      "type": "0x2",
      "transactionHash": "0x4b178fd8dd00799c73cea26ca4f04e0bb26347021fe1094fc602c8bcbb4916a0",
      "transactionIndex": "0xe2",
      "blockHash": "0xe972c4fa6a46a3b419f623c71d98eaa692abb32665c44049b7a0f90470ce6ea1",
      "blockNumber": "0x14cec43",
      "gasUsed": "0x3b8d0",
      "effectiveGasPrice": "0x48795d06",
      "from": "0x759941ecb2b2961566c94e4db53ae3eec35f980c",
      "to": "0x007392c33cce375634d264a42cdcb21fbfbe47aa",
      "contractAddress": null
    }
  ],
  "libraries": [],
  "pending": [],
  "returns": {},
  "timestamp": 1739218430,
  "chain": 1,
  "commit": "cbea99b"
}