{
  "transactions": [
    {
      "hash": "0x9a62e266974e585da43f9f213616be68efd999d611a4b8d0d291f7574df4e229",
      "transactionType": "CALL",
      "contractName": "LegacyNFT",
      "contractAddress": "0x007392c33cce375634d264a42cdcb21fbfbe47aa",
      "function": "mint(address,uint256,string)",
      "arguments": [
        "0x66dcc49c47ebc505a4b560fD14Dc143f0098407f",
        "6",
        "https://ipfs.io/ipfs/bafkreiex7i5nr2ihyk3ptlengivnbpxzpo44vz7b53vamtnb3bafe6huyu"
      ],
      "transaction": {
        "from": "0x759941ecb2b2961566c94e4db53ae3eec35f980c",
        "to": "0x007392c33cce375634d264a42cdcb21fbfbe47aa",
        "gas": "0x549f1",
        "value": "0x0",
        "input": "0xd3fc986400000000000000000000000066dcc49c47ebc505a4b560fd14dc143f0098407f00000000000000000000000000000000000000000000000000000000000000060000000000000000000000000000000000000000000000000000000000000060000000000000000000000000000000000000000000000000000000000000005068747470733a2f2f697066732e696f2f697066732f6261666b72656965783769356e72326968796b3370746c656e6769766e6270787a706f3434767a3762353376616d746e623362616665366875797500000000000000000000000000000000",
        "nonce": "0xc",
        "chainId": "0x1"
      },
      "additionalContracts": [],
      "isFixedGasLimit": false
    }
  ],
  "receipts": [
    {
      "status": "0x1",
      "cumulativeGasUsed": "0xd487a7",
      "logs": [
        {
          "address": "0x007392c33cce375634d264a42cdcb21fbfbe47aa",
          "topics": [
            "0xddf252ad1be2c89b69c2b068fc378daa952ba7f163c4a11628f55a4df523b3ef",
            "0x0000000000000000000000000000000000000000000000000000000000000000",
            "0x00000000000000000000000066dcc49c47ebc505a4b560fd14dc143f0098407f",
            "0x0000000000000000000000000000000000000000000000000000000000000006"
          ],
          "data": "0x",
          "blockHash": "0x9d5072e999f71882828a12a14d0d145a6de7a768cfbe766c63dbe37171bb43df",
          "blockNumber": "0x14cec59",
          "transactionHash": "0x9a62e266974e585da43f9f213616be68efd999d611a4b8d0d291f7574df4e229",
          "transactionIndex": "0x90",
          "logIndex": "0x16d",
          "removed": false
        },
        {
          "address": "0x66dcc49c47ebc505a4b560fd14dc143f0098407f",
          "topics": [
            "0xa05d90f300156ad1b545bc5d8197024456f21d22a708f5af04dd293e3d605251",
            "0x000000000000000000000000759941ecb2b2961566c94e4db53ae3eec35f980c",
            "0x0000000000000000000000000000000000000000000000000000000000000000",
            "0x0000000000000000000000000000000000000000000000000000000000000006"
          ],
          "data": "0x00000000000000000000000000000000000000000000000000000000000000200000000000000000000000000000000000000000000000000000000000000000",
          "blockHash": "0x9d5072e999f71882828a12a14d0d145a6de7a768cfbe766c63dbe37171bb43df",
          "blockNumber": "0x14cec59",
          "transactionHash": "0x9a62e266974e585da43f9f213616be68efd999d611a4b8d0d291f7574df4e229",
          "transactionIndex": "0x90",
          "logIndex": "0x16e",
          "removed": false
        },
        {
          "address": "0x007392c33cce375634d264a42cdcb21fbfbe47aa",
          "topics": [
            "0xf8e1a15aba9398e019f0b49df1a4fde98ee17ae345cb5f6b5e2c27f5033e8ce7"
          ],
          "data": "0x0000000000000000000000000000000000000000000000000000000000000006",
          "blockHash": "0x9d5072e999f71882828a12a14d0d145a6de7a768cfbe766c63dbe37171bb43df",
          "blockNumber": "0x14cec59",
          "transactionHash": "0x9a62e266974e585da43f9f213616be68efd999d611a4b8d0d291f7574df4e229",
          "transactionIndex": "0x90",
          "logIndex": "0x16f",
          "removed": false
        },
        {
          "address": "0x007392c33cce375634d264a42cdcb21fbfbe47aa",
          "topics": [
            "0xec2cd236ed6d37bf5a71276ac93889db12834493a090efd543a3d2eca8dcdcc8",
            "0x0000000000000000000000000000000000000000000000000000000000000006",
            "0x00000000000000000000000066dcc49c47ebc505a4b560fd14dc143f0098407f"
          ],
          "data": "0x0000000000000000000000000000000000000000000000000000000000000020000000000000000000000000000000000000000000000000000000000000005068747470733a2f2f697066732e696f2f697066732f6261666b72656965783769356e72326968796b3370746c656e6769766e6270787a706f3434767a3762353376616d746e623362616665366875797500000000000000000000000000000000",
          "blockHash": "0x9d5072e999f71882828a12a14d0d145a6de7a768cfbe766c63dbe37171bb43df",
          "blockNumber": "0x14cec59",
          "transactionHash": "0x9a62e266974e585da43f9f213616be68efd999d611a4b8d0d291f7574df4e229",
          "transactionIndex": "0x90",
          "logIndex": "0x170",
          "removed": false
        }
      ],
      "logsBloom": "0x00000000000000000000000000000000000000000000000020000000000000000000000000000000000000002000000000000000000400000000002000000000000000000000000100080008000000000000000000000000000000000000000000000000020000000000000000000800000000000080080001000010004000000000000400000000000008000000000000000000000000000000000000000000000000000000000000000000000000002000040000000000004000880000008000000002000001000000000000000000000000000000004002000000000020000000000000000000200400000000000000000000000000000000000000000000",
      "type": "0x2",
      "transactionHash": "0x9a62e266974e585da43f9f213616be68efd999d611a4b8d0d291f7574df4e229",
      "transactionIndex": "0x90",
      "blockHash": "0x9d5072e999f71882828a12a14d0d145a6de7a768cfbe766c63dbe37171bb43df",
      "blockNumber": "0x14cec59",
      "gasUsed": "0x3d43c",
      "effectiveGasPrice": "0x45a7d81e",
      "from": "0x759941ecb2b2961566c94e4db53ae3eec35f980c",
      "to": "0x007392c33cce375634d264a42cdcb21fbfbe47aa",
      "contractAddress": null
    }
  ],
  "libraries": [],
  "pending": [],
  "returns": {},
  "timestamp": 1739218705,
  "chain": 1,
  "commit": "cbea99b"
}